:020000040000fa
:080000000001040000000000f3
:020000040000fa
:040008006002000092
:020000040000fa
:04000c00600200008e
:020000040000fa
:04001000600200008a
:020000040000fa
:040014006002000086
:020000040000fa
:040018006002000082
:020000040000fa
:04001c00600200007e
:020000040000fa
:04002000600200007a
:020000040000fa
:040024006002000076
:020000040000fa
:04002800d8010000fb
:020000040000fa
:04002c00600200006e
:020000040000fa
:04003000600200006a
:020000040000fa
:040034006002000066
:020000040000fa
:040038006002000062
:020000040000fa
:04003c00600200005e
:020000040000fa
:04004000600200005a
:020000040000fa
:040044006002000056
:020000040000fa
:040048006002000052
:020000040000fa
:04004c00600200004e
:020000040000fa
:04005000600200004a
:020000040000fa
:040054006002000046
:020000040000fa
:040058006002000042
:020000040000fa
:04005c00600200003e
:020000040000fa
:04006000600200003a
:020000040000fa
:040064003e02000058
:020000040000fa
:04006800fa01000099
:020000040000fa
:04006c00600200002e
:020000040000fa
:04007000600200002a
:020000040000fa
:040074006002000026
:020000040000fa
:040078006002000022
:020000040000fa
:04007c00600200001e
:020000040000fa
:04008000600200001a
:020000040000fa
:040084001c0200005a
:020000040000fa
:040088006002000012
:020000040000fa
:04008c00600200000e
:020000040000fa
:04009000600200000a
:020000040000fa
:040094006002000006
:020000040000fa
:040098006002000002
:020000040000fa
:04009c0060020000fe
:020000040000fa
:0400a00060020000fa
:020000040000fa
:0400a40060020000f6
:020000040000fa
:0400a80060020000f2
:020000040000fa
:0400ac0060020000ee
:020000040000fa
:0400b00060020000ea
:020000040000fa
:0400b40060020000e6
:020000040000fa
:0400b80060020000e2
:020000040000fa
:0400bc0060020000de
:020000040000fa
:0400c00060020000da
:020000040000fa
:0400c40060020000d6
:020000040000fa
:0400c80060020000d2
:020000040000fa
:0400cc0060020000ce
:020000040000fa
:0400d00060020000ca
:020000040000fa
:0400d40060020000c6
:020000040000fa
:0400d80060020000c2
:020000040000fa
:040108006002000091
:020000040000fa
:04010c00600200008d
:020000040000fa
:040110006002000089
:020000040000fa
:040114006002000085
:020000040000fa
:040118006002000081
:020000040000fa
:04011c00600200007d
:020000040000fa
:040120006002000079
:020000040000fa
:040124006002000075
:020000040000fa
:040128006002000071
:020000040000fa
:04012c00600200006d
:020000040000fa
:040130006002000069
:020000040000fa
:040134006002000065
:020000040000fa
:040138006002000061
:020000040000fa
:04013c00600200005d
:020000040000fa
:040140006002000059
:020000040000fa
:040144006002000055
:020000040000fa
:040148006002000051
:020000040000fa
:04014c00600200004d
:020000040000fa
:040150006002000049
:020000040000fa
:040154006002000045
:020000040000fa
:040158006002000041
:020000040000fa
:04015c00600200003d
:020000040000fa
:040160006002000039
:020000040000fa
:040164006002000035
:020000040000fa
:040168006002000031
:020000040000fa
:04016c00600200002d
:020000040000fa
:040170006002000029
:020000040000fa
:040174006002000025
:020000040000fa
:040178006002000021
:020000040000fa
:04017c00600200001d
:020000040000fa
:040180006002000019
:020000040000fa
:040184006002000015
:020000040000fa
:040188006002000011
:020000040000fa
:04018c00600200000d
:020000040000fa
:040190006002000009
:020000040000fa
:040194006002000005
:020000040000fa
:040198006002000001
:020000040000fa
:04019c0060020000fd
:020000040000fa
:0401a00060020000f9
:020000040000fa
:0401a40060020000f5
:020000040000fa
:0401a80060020000f1
:020000040000fa
:0401ac0060020000ed
:020000040000fa
:0401b00060020000e9
:020000040000fa
:0401b40060020000e5
:020000040000fa
:0401b80060020000e1
:020000040000fa
:0401bc0060020000dd
:020000040000fa
:0401c00060020000d9
:020000040000fa
:0401c40060020000d5
:020000040000fa
:0401c80060020000d1
:020000040000fa
:0401cc0060020000cd
:020000040000fa
:0401d00060020000c9
:020000040000fa
:0401d40060020000c5
:020000040000fa
:0401d80060020000c1
:020000040000fa
:100200000f8020000eff20000e018800000000007b
:10021000000020000000e000020032000001200089
:100220002002880014000700a70007000000e0007b
:1002300003003a0000002000010020000200370007
:100240000000200001002000810f7000010032003a
:1002500014000700000020000000e000020032004f
:100260000000020000000000c802020000000000c0
:100270000040da000000fe004440a9000000200019
:100280000000e0000300320000002000a001880010
:100290004440a800000006008a1f78008b1f7800e9
:1002a0000000060091018800800478000000eb0047
:1002b0001a003700e284440032a0b4009905ba0065
:1002c000e284440032a0b4009906ba00e2844400fb
:1002d00032a0b4000006eb00476fde00fd07b2005d
:1002e000636ce10003003a00ebff07000000eb0045
:1002f0000a003700606ce10004003a00005deb008a
:100300008b05e900fdff3e00040037006168e10055
:10031000010032000086eb000b00070019c7ba008d
:100320001905ba000e04e00003003a000a00e000dc
:10033000e0ff3a0000000600fe07b2009e018800c0
:100340008a047800f5ff3700395dba008b05e900b3
:100350000c003200295dba008b05e900080032006c
:100360000c00e00003003a00e284440032a0b40034
:10037000f5ff370019ddba008b05e900faff3a00f6
:100380008904e800e184440032a0b40000000600c3
:10039000000000000000000000000000000000005d
:1003a000000000000000000000000000000000004d
:1003b0003600f800809fbe00829fbe00849fbe0072
:1003c000869fbe000000fa008400a900d1a2a90007
:1003d00000292000000001000080fa004f03be0049
:1003e0004f02be004f01be004f00be003600f900b4
:1003f000004006003600f800809fbe00829fbe00cd
:10040000849fbe00869fbe000000fa008600a900ff
:10041000d1a2a800e0292000000001000080fa001d
:100420004f03be004f02be004f01be004f00be0092
:100430003600f900004006003600f800809fbe003c
:10044000829fbe00849fbe00869fbe000000fa000f
:1004500086e0a900d1c2a900c02a20000000010046
:100460000080fa004f03be004f02be004f01be00e5
:100470004f00be003600f900004006003600f800cc
:10048000809fbe00829fbe00849fbe00869fbe00ec
:100490000000fa0085e0a900d1c2a800a02b20002e
:1004a000000001000080fa004f03be004f02be00b2
:1004b0004f01be004f00be003600f90000400600ac
:0c04c0000040da000000fe000000050013
:020000040000fa
:1004cc000400fa000000eb00000f78000b0037006e
:1004dc000000eb0010079800030037001e0090008e
:1004ec000000e800100798009e00900070bb2000f0
:1004fc00808f5000f9ff34001e0fe800c007200069
:10050c009e007800808f5000f1ff34000080fa00cc
:10051c00000006000000fa00ca02a800ca22a900c6
:10052c00ca42a900ca62a9000080fa0000000600b5
:10053c000000fa00ca02a900ca22a800ca42a900f7
:10054c00ca62a9000080fa00000006000000fa0050
:10055c00ca02a800ca22a800ca42a900ca62a900fd
:10056c000080fa00000006000000fa00ca02a90090
:10057c00ca22a900ca42a800ca62a9000080fa00d7
:10058c00000006000000fa00000d20003016880064
:10059c00f00f200040158800ca22ef00cc22ef009b
:1005ac00d022ef001000200090168800d1c2a800c5
:1005bc00c3ff0700d1c2a9008200a8008220a800b6
:1005cc008240a80085e0a9008400a9008600a9004b
:1005dc0086e0a900c0c0a8008de0a8008c00a8008f
:1005ec008e00a8008ee0a800d1a2a800b4ff0700de
:1005fc00d1a2a900ca02a900ca22a900ca42a80015
:0c060c00ca62a900aeff0700f7ff37002c
:020000040000fa
:0200000401f009
:04000000e0b9000063
:020000040000fa
:0200000401f009
:04000400ff7f00007a
:020000040000fa
:0200000401f009
:040008006d7f000008
:020000040000fa
:0200000401f009
:04001400ffff0000ea
:00000001FF
